{
  "contractName": "TasksContract",
  "abi": [
    {
      "inputs": [],
      "name": "taskcounter",
      "outputs": [
        {
          "internalType": "uint256",
          "name": "",
          "type": "uint256"
        }
      ],
      "stateMutability": "view",
      "type": "function",
      "constant": true
    },
    {
      "inputs": [
        {
          "internalType": "uint256",
          "name": "",
          "type": "uint256"
        }
      ],
      "name": "tasks",
      "outputs": [
        {
          "internalType": "uint256",
          "name": "id",
          "type": "uint256"
        },
        {
          "internalType": "string",
          "name": "title",
          "type": "string"
        },
        {
          "internalType": "string",
          "name": "description",
          "type": "string"
        },
        {
          "internalType": "bool",
          "name": "done",
          "type": "bool"
        },
        {
          "internalType": "uint256",
          "name": "crateAt",
          "type": "uint256"
        }
      ],
      "stateMutability": "view",
      "type": "function",
      "constant": true
    },
    {
      "inputs": [
        {
          "internalType": "string",
          "name": "_title",
          "type": "string"
        },
        {
          "internalType": "string",
          "name": "_description",
          "type": "string"
        }
      ],
      "name": "crateTask",
      "outputs": [],
      "stateMutability": "nonpayable",
      "type": "function"
    },
    {
      "inputs": [
        {
          "internalType": "uint256",
          "name": "_id",
          "type": "uint256"
        },
        {
          "internalType": "string",
          "name": "_newTitle",
          "type": "string"
        }
      ],
      "name": "modifyTitle",
      "outputs": [],
      "stateMutability": "nonpayable",
      "type": "function"
    },
    {
      "inputs": [
        {
          "internalType": "uint256",
          "name": "_id",
          "type": "uint256"
        },
        {
          "internalType": "string",
          "name": "_description",
          "type": "string"
        }
      ],
      "name": "modifyDescription",
      "outputs": [],
      "stateMutability": "nonpayable",
      "type": "function"
    },
    {
      "inputs": [
        {
          "internalType": "uint256",
          "name": "_id",
          "type": "uint256"
        }
      ],
      "name": "toggleDone",
      "outputs": [],
      "stateMutability": "view",
      "type": "function",
      "constant": true
    }
  ],
  "bytecode": "0x60806040526000805534801561001457600080fd5b50610aab806100246000396000f3fe608060405234801561001057600080fd5b50600436106100625760003560e01c80638026f8e61461006757806386be0516146100835780638d977672146100a1578063a48e7082146100d5578063ba135c13146100f1578063d81ef7391461010d575b600080fd5b610081600480360381019061007c9190610662565b610129565b005b61008b6101f5565b60405161009891906107ba565b60405180910390f35b6100bb60048036038101906100b691906106da565b6101fb565b6040516100cc9594939291906107d5565b60405180910390f35b6100ef60048036038101906100ea9190610707565b61034e565b005b61010b60048036038101906101069190610707565b61037d565b005b610127600480360381019061012291906106da565b6103ac565b005b6040518060a00160405280600054815260200183815260200182815260200160001515815260200142815250600160008054815260200190815260200160002060008201518160000155602082015181600101908051906020019061018f92919061053a565b5060408201518160020190805190602001906101ac92919061053a565b5060608201518160030160006101000a81548160ff021916908315150217905550608082015181600401559050506000808154809291906101ec90610963565b91905055505050565b60005481565b600160205280600052604060002060009150905080600001549080600101805461022490610900565b80601f016020809104026020016040519081016040528092919081815260200182805461025090610900565b801561029d5780601f106102725761010080835404028352916020019161029d565b820191906000526020600020905b81548152906001019060200180831161028057829003601f168201915b5050505050908060020180546102b290610900565b80601f01602080910402602001604051908101604052809291908181526020018280546102de90610900565b801561032b5780601f106103005761010080835404028352916020019161032b565b820191906000526020600020905b81548152906001019060200180831161030e57829003601f168201915b5050505050908060030160009054906101000a900460ff16908060040154905085565b8060016000848152602001908152602001600020600101908051906020019061037892919061053a565b505050565b806001600084815260200190815260200160002060020190805190602001906103a792919061053a565b505050565b6000600160008381526020019081526020016000206040518060a0016040529081600082015481526020016001820180546103e690610900565b80601f016020809104026020016040519081016040528092919081815260200182805461041290610900565b801561045f5780601f106104345761010080835404028352916020019161045f565b820191906000526020600020905b81548152906001019060200180831161044257829003601f168201915b5050505050815260200160028201805461047890610900565b80601f01602080910402602001604051908101604052809291908181526020018280546104a490610900565b80156104f15780601f106104c6576101008083540402835291602001916104f1565b820191906000526020600020905b8154815290600101906020018083116104d457829003601f168201915b505050505081526020016003820160009054906101000a900460ff1615151515815260200160048201548152505090508060600151158160600190151590811515815250505050565b82805461054690610900565b90600052602060002090601f01602090048101928261056857600085556105af565b82601f1061058157805160ff19168380011785556105af565b828001600101855582156105af579182015b828111156105ae578251825591602001919060010190610593565b5b5090506105bc91906105c0565b5090565b5b808211156105d95760008160009055506001016105c1565b5090565b60006105f06105eb8461085b565b610836565b90508281526020810184848401111561060c5761060b610a3e565b5b6106178482856108be565b509392505050565b600082601f83011261063457610633610a39565b5b81356106448482602086016105dd565b91505092915050565b60008135905061065c81610a5e565b92915050565b6000806040838503121561067957610678610a48565b5b600083013567ffffffffffffffff81111561069757610696610a43565b5b6106a38582860161061f565b925050602083013567ffffffffffffffff8111156106c4576106c3610a43565b5b6106d08582860161061f565b9150509250929050565b6000602082840312156106f0576106ef610a48565b5b60006106fe8482850161064d565b91505092915050565b6000806040838503121561071e5761071d610a48565b5b600061072c8582860161064d565b925050602083013567ffffffffffffffff81111561074d5761074c610a43565b5b6107598582860161061f565b9150509250929050565b61076c816108a8565b82525050565b600061077d8261088c565b6107878185610897565b93506107978185602086016108cd565b6107a081610a4d565b840191505092915050565b6107b4816108b4565b82525050565b60006020820190506107cf60008301846107ab565b92915050565b600060a0820190506107ea60008301886107ab565b81810360208301526107fc8187610772565b905081810360408301526108108186610772565b905061081f6060830185610763565b61082c60808301846107ab565b9695505050505050565b6000610840610851565b905061084c8282610932565b919050565b6000604051905090565b600067ffffffffffffffff82111561087657610875610a0a565b5b61087f82610a4d565b9050602081019050919050565b600081519050919050565b600082825260208201905092915050565b60008115159050919050565b6000819050919050565b82818337600083830152505050565b60005b838110156108eb5780820151818401526020810190506108d0565b838111156108fa576000848401525b50505050565b6000600282049050600182168061091857607f821691505b6020821081141561092c5761092b6109db565b5b50919050565b61093b82610a4d565b810181811067ffffffffffffffff8211171561095a57610959610a0a565b5b80604052505050565b600061096e826108b4565b91507fffffffffffffffffffffffffffffffffffffffffffffffffffffffffffffffff8214156109a1576109a06109ac565b5b600182019050919050565b7f4e487b7100000000000000000000000000000000000000000000000000000000600052601160045260246000fd5b7f4e487b7100000000000000000000000000000000000000000000000000000000600052602260045260246000fd5b7f4e487b7100000000000000000000000000000000000000000000000000000000600052604160045260246000fd5b600080fd5b600080fd5b600080fd5b600080fd5b6000601f19601f8301169050919050565b610a67816108b4565b8114610a7257600080fd5b5056fea2646970667358221220255f3accf702907a907fc4619c1b1c167c33e758afe67b4d26d7a64a2d3a112364736f6c63430008060033",
  "immutableReferences": {},
  "source": "// SPDX-License-Identifier: MIT\r\npragma solidity ^0.8.6;\r\n\r\ncontract TasksContract {\r\n\r\n    uint public taskcounter = 0; \r\n\r\n    struct Task {\r\n        uint id;\r\n        string title;\r\n        string description;\r\n        bool done; \r\n        uint crateAt;\r\n    }\r\n\r\n    // CRUD: CREATE , READ , UPDATE , DELETE\r\n\r\n    // READ\r\n    mapping (uint => Task) public tasks;\r\n\r\n    // CREATE\r\n    function crateTask(string memory _title, string memory _description) public {\r\n     tasks[taskcounter] = Task(taskcounter, _title, _description, false, block.timestamp );\r\n     taskcounter++;\r\n    }\r\n// preo el _id es el index... no tiene sentido\r\n// es lo mismo, nos esta faltando el retorno de la funcion cuando encuentra un error, es lo mismo si pongo idnex que _id.\r\n    // function findIndex(uint _id) internal view returns (uint) {\r\n    //     for (uint i = 0; i < taskcounter; i++) {\r\n    //         if (tasks[i].id == _id) {\r\n    //             return i;\r\n    //         }\r\n    //     }\r\n    //     revert(\"task no found\");\r\n    // }\r\n\r\n    // UPDATE TITLE\r\n    function modifyTitle(uint _id, string memory _newTitle) public {\r\n     tasks[_id].title = _newTitle;\r\n    } \r\n     \r\n    // UPDATE DESCRIPTION\r\n    function modifyDescription(uint _id, string memory _description) public {\r\n     tasks[_id].description = _description;\r\n    } \r\n\r\n    // UPDATE DONE = DELETE\r\n    function toggleDone(uint _id) public view {\r\n     Task memory _task = tasks[_id];\r\n     _task.done = !_task.done;\r\n    } \r\n\r\n    // PIOLA ACTUALIZA LA ABI O LO Q SEA Q SE USE, NO TENGO IDEA COMO ES\r\n    // AHORA VOY A BUSCAR COMO TESTEAR TRUFFLE DESDE JAVASCRIPT\r\n    // ASI COMO ESTA PROBALO VOS EN TU BLOCKCHAIN LOCAL\r\n}\r\n",
  "sourcePath": "/Users/matiasgumma/myfirstcontract/contracts/TasksContract.sol",
  "compiler": {
    "name": "solc",
    "version": "0.8.6+commit.11564f7e.Emscripten.clang"
  },
  "schemaVersion": "3.4.7",
  "updatedAt": "2022-05-25T01:13:09.667Z",
  "networkType": "ethereum",
  "devdoc": {
    "kind": "dev",
    "methods": {},
    "version": 1
  },
  "userdoc": {
    "kind": "user",
    "methods": {},
    "version": 1
  }
}